:020000040800F2
:10000000780F002091010008990100089B01000869
:100010009D0100089F010008A101000800000000E8
:10002000000000000000000000000000A301000824
:10003000A501000800000000A7010008A9010008B0
:10004000AB010008AB010008AB010008AB010008E0
:10005000AB010008AB01000879080008AB010008FB
:10006000AB010008AB010008AB010008AB010008C0
:10007000AB010008AB010008AB010008AB010008B0
:10008000AB010008AB010008AB010008AB010008A0
:10009000AB010008AB010008AB010008AB01000890
:1000A000AB010008AB010008AB010008AB01000880
:1000B000111200088D120008AB010008AB01000806
:1000C000AB010008AB010008AB010008AB01000860
:1000D000AB01000841130008AB010008AB010008A8
:1000E000AB010008AB010008AB01000800F002F80A
:1000F00000F03FF80AA090E8000C82448344AAF183
:100100000107DA4501D100F034F8AFF2090EBAE880
:100110000F0013F0010F18BFFB1A43F0010318473B
:100120005851000078510000103A24BF78C878C1B7
:10013000FAD8520724BF30C830C144BF04680C60ED
:10014000704700000023002400250026103A28BF35
:1001500078C1FBD8520728BF30C148BF0B60704739
:10016000692900F07D80002070471FB51FBD10B5C4
:1001700010BD00F02FF91146FFF7F7FF01F040F92D
:1001800000F04DF903B4FFF7F2FF03BC00F050F9A3
:100190000948804709480047FEE7FEE7FEE7FEE71B
:1001A000FEE7FEE7FEE7FEE7FEE7FEE70448054957
:1001B000054A064B70470000B1110008ED00000829
:1001C00078090020780F0020780B0020780B0020A1
:1001D0000FB41CB5074B06AA7B44694600900598EE
:1001E00000F0DBF80020694600F0EAF81CBC5DF87E
:1001F00014FB0000E50100002DE9F0410E46044625
:10020000002020622046E168884730B3252805D0C9
:10021000D4E901219047206A401CF2E7E1682046BA
:1002200000278847050018D0A5F14100192802D8F9
:1002300020354FF400673246294620462760FFF7F5
:100240008FFF40B1012804D0F61D26F007060836BE
:10025000D8E7361DD6E72846DAE7206ABDE8F08100
:100260002DE9F0410646002410687529314616A58F
:1002700010D0AFF30080002802DA404213A507E057
:1002800031688A0701D512A502E0490704D511A5F6
:10029000012401E0AFF3008000210A2206F12407C7
:1002A00009E0B0FBF2FCB0FBF2F302FB1C003030C3
:1002B00078541846491C0028F3D123462A46304674
:1002C000BDE8F04100F00BB8000000002D00000078
:1002D0002B000000200000007047704770472DE998
:1002E000F0470D4699469246044600F124080168FD
:1002F000880604D5E06921F01001216000E00120AA
:10030000A84201DD471B00E00027A1697A1902EB32
:100310000900081AA0612078C00602D42046AFF375
:100320000080002608E0D4E901211AF80600904771
:10033000206A401C761C20624E45F4DB2078C00603
:100340000AD52046AFF3008006E0D4E90121302031
:100350009047206A401C2062381EA7F10107F4DC98
:1003600007E0D4E9012118F805009047206A401CF5
:100370002062281EA5F10105F3DC2046AFF30080C2
:100380002078000602D50220BDE8F0870120FBE7B7
:1003900001694A1C02610878704700B58FB0CDE949
:1003A00001310021059105497944CDE90310114639
:1003B0006846FFF721FF0FB000BD0000E5FFFFFF1B
:1003C0000A6802F8010B0A60704700000048704795
:1003D000180900207546FFF7F9FFAE46050069468B
:1003E000534620F00700854618B020B5FFF7DEFE23
:1003F000BDE820404FF000064FF000074FF0000826
:100400004FF0000B21F00701AC46ACE8C009ACE8A6
:10041000C009ACE8C009ACE8C0098D46704710B50A
:100420000446AFF300802046BDE81040FFF7AABEA7
:1004300001491820ABBEFEE726000200704700000D
:100440002DE9F04FA7B081468A46642000F0ECF910
:100450007848008820F400607649088008460088C3
:1004600040F4806008800846008840F4807008806E
:1004700000BF70481430008800F001000028F8D058
:10048000642000F0D1F971206A491031088000BF62
:1004900068481430008800F002000028F8D0654851
:1004A0001430008863481830008800242BE0AAF13B
:1004B0000100A0420DDD00BF5E481430008800F04E
:1004C00040000028F8D05B481030008809F804008C
:1004D00017E000BF57481430008800F040000028A3
:1004E000F8D054481030008809F8040051480088BA
:1004F00020F480604F4908800846008840F400706E
:100500000880601C84B25445D1DB4BA000F054FF3E
:100510004D48C0780007000B4B49097940EA01209B
:10052000494949790843494908600846006801F08B
:1005300091FC07460022464B01F0A0FC0546002234
:10054000444B01F02FFBCDE9000101F051FA834645
:1005500001F07CFE0022404BCDE9020101F08CFD50
:10056000CDE9040101F044FA3C490860364840787E
:1005700000033549897840EA01103349C97840EAD7
:100580002110324908600846006801F063FC00222F
:10059000334BCDE9040101F071FC054600222D4BDF
:1005A00001F000FB074601F023FA2E4908602E49AE
:1005B0002A48006801F092FE054601F073FE2B49BF
:1005C000088029492748006801F088FE054601F0A7
:1005D00069FE2749088027A000F0EEFE2348008826
:1005E0000A2190FBF1F201FB12052048008890FBE4
:1005F000F1F62B46324622A106A8FFF7E9FD06A830
:1006000000F0DAFE1A4800880A2190FBF1F201FBA3
:1006100012051748008890FBF1F62B4632461BA1C5
:1006200006A8FFF7D5FD06A800F0C6FE27B0BDE876
:10063000F08F0000005400400A493243315F526598
:100640006164204F4B200000050000200C000020BA
:1006500000006940000030410000494014000020C3
:100660000000594018000020000020411C0000201C
:100670001E0000200A526573756C743A0000000079
:100680000A74203D202B25692E2569000A68203D2B
:100690002025692E256925250000000070B5054636
:1006A0000E462A48008820F4006028490880084641
:1006B000008840F4806008800846008840F480701C
:1006C000088000BF21481430008800F00100002895
:1006D000F8D01E48143000881C481030008820F0E4
:1006E000FF0040F0700019491031088000BF174822
:1006F0001430008800F002000028F8D013481430AD
:100700000088124818300088002413E00F48103089
:10071000008820F0FF00295D08430C491031088053
:1007200000BF0A481430008800F080000028F8D08C
:10073000601CC4B2B442E9DB05A000F03DFE0348F2
:10074000008840F400700149088070BD00540040EA
:100750000A0A41485431305F5772697465204F4B23
:100760000000000010B52A48006840F48030284995
:10077000086000BF2648006800F400300028F9D067
:100780002448006820F010002249086008460068EC
:1007900040F0100008600846006820F00300801C4C
:1007A00008601B48406820F0F0001949486008467E
:1007B000406820F4605048600846406820F4E060DB
:1007C00040F4806048600846406820F47C1040F4A3
:1007D000E81048600846006840F08070086000BF7C
:1007E0000B48006800F000700028F9D00848406805
:1007F00020F00300801C0649486000BF04484068A0
:1008000000F00C000828F9D103A000F0D5FD10BDC0
:1008100000100240002002400A436C6F636B5F4986
:100820006E6974204F4B0000002100E0491C81429A
:10083000FCD37047F8B506460F461446781E00FBF9
:1008400004F50DE0711988B22246694600F02AFAD3
:100850007119214488B22246694600F0C7FA2D1B5F
:10086000002DEFDA01A000F0A7FDF8BD0A5368697A
:1008700066745F4F4B00000008B54848006840F0C0
:1008800001004649086014224549002000F00AFA98
:100890004FF4966004E00021424A1154411C88B292
:1008A000B0F5166FF7DB63E03D48807800903C4878
:1008B000437802783CA14148FFF78AFC00210846B2
:1008C00001F008F801233E4806C83C4801F07AF8D8
:1008D00033488079009032484379027939A137480A
:1008E000FFF776FC0C21002000F0F4FF01233448D0
:1008F00006C8324801F066F82948807A00902848F6
:10090000437A027A34A12D48FFF762FC18210020B7
:1009100000F0E0FF01232A4806C8284801F052F8F9
:100920001F48807B00901E48437B027B2FA12348F9
:10093000FFF74EFC2421002000F0CCFF01232048CB
:1009400006C81E4801F03EF81548807C0090144807
:10095000437C027C2AA11948FFF73AFC3021002091
:1009600000F0B8FF0123164806C8144801F02AF821
:100970002848006800F00100002895D14FF49660E7
:1009800004E00021074A1154411C88B2B0F5166FEB
:10099000F7DB21A000F010FD08BD000014040140A9
:1009A000580400205800002031682F6120743D2B2E
:1009B00025692E256920683D2569200098040020BE
:1009C0004000002032682F6120743D2B25692E25C0
:1009D0006920683D2569200033682F6120743D2B14
:1009E00025692E256920683D2569200034682F611E
:1009F00020743D2B25692E256920683D256920003E
:100A000035682F6120743D2B25692E256920683DAE
:100A100025692000080801400A425554544F4E00F1
:100A200010B51848806940F00100164988610846F1
:100A3000806940F0040088611348006820F00700D6
:100A400040F0080010490860104880680F4988602D
:100A50000F48006840F001000D4908600C48083854
:100A6000006840F001000A490839086008480C3065
:100A7000006840F0010006490C310860062000F0D3
:100A8000B1FC10BD00100240000801400000014010
:100A90000804014010B53948806940F00800374922
:100AA00088610846C06940F40010C8613448006895
:100AB00040F07F40324908603048C06900F40010BF
:100AC000304908603048008820F001002E49088035
:100AD0002D480C38008820F040002B490C39088044
:100AE0000846008820F0800008800846008820F032
:100AF00001000880081D008820F03F0040F024001D
:100B0000091D088020481430008820F03F0040F084
:100B100025001D4914310880081F00884CF6FF711C
:100B2000884340F0B4001849103108801648001F6F
:100B3000008848F2FF31884340F480401249091F81
:100B4000088011480C38008820F01A000E490C3932
:100B500008800846008840F00100088008460088A8
:100B600040F4806008800848008820F0FE000649B4
:100B7000088006A000F020FC10BD0000001002401C
:100B8000000C0140000000200C5400400A49324390
:100B9000315F496E6974204F4B00000010B5394831
:100BA000806940F00800374988610846C06940F410
:100BB0008000C8613448006840F47F4032490860D2
:100BC0003048C06900F4800030490860304800882F
:100BD00020F001002E4908802D480C38008820F0B4
:100BE00040002B490C3908800846008820F080001E
:100BF00008800846008820F001000880081D008851
:100C000020F03F0040F02400091D088020481430E7
:100C1000008820F03F0040F025001D491431088075
:100C2000081F00884CF6FF71884340F0B400184953
:100C3000103108801648001F008848F2FF318843B1
:100C400040F480401249091F088011480C38008880
:100C500020F01A000E490C3908800846008840F040
:100C6000010008800846008840F480600880084839
:100C7000008820F0FE000649088006A000F09CFBDA
:100C800010BD000000100240040C014000000020D4
:100C90000C5800400A493243325F496E6974204F54
:100CA0004B0000002DE9F04105460E4617464A4824
:100CB000008820F40060484908800846008840F415
:100CC000806008800846008840F48070088000BF7B
:100CD00041481430008800F001000028F8D0A0201E
:100CE0003D491031088000BF3B481430008800F0B7
:100CF00002000028F8D038481430008836481830F0
:100D00000088281234491031088000BF324814305E
:100D1000008800F080000028F8D0E8B22E49103199
:100D2000088000BF2C481430008800F080000028A4
:100D3000F8D02948008840F480702749088000BF17
:100D400025481430008800F001000028F8D0A120C8
:100D500021491031088000BF1F481430008800F07E
:100D600002000028F8D01C48143000881A481830B7
:100D70000088002428E0781EA0420CDD00BF164841
:100D80001430008800F040000028F8D012481030DD
:100D90000088305516E000BF0F481430008800F07E
:100DA00040000028F8D00C481030008830550A4820
:100DB000008820F48060084908800846008840F4D4
:100DC00000700880601C84B2BC42D4DB03A000F039
:100DD000F3FABDE8F0810000005800400A493243B0
:100DE0005F52656164204F4B000000002DE9F04127
:100DF00005460E4617463C48008820F400603A49F4
:100E000008800846008840F4806008800846008812
:100E100040F48070088000BF33481430008800F030
:100E200001000028F8D03048143000882E481030D7
:100E3000008820F0FF0040F0A0002B49103108800E
:100E400000BF29481430008800F002000028F8D0C4
:100E50002548143000882448183000882248103073
:100E6000008820F0FF0040EA25201F49103108804B
:100E700000BF1D481430008800F080000028F8D022
:100E800019481030008865F30700174910310880B1
:100E900000BF15481430008800F080000028F8D00A
:100EA000002413E010481030008820F0FF00315D6E
:100EB00008430D491031088000BF0B4814300088EA
:100EC00000F080000028F8D0601CC4B2BC42E9DB0E
:100ED0000548008840F400700349088003A000F032
:100EE0006BFABDE8F0810000005800400A49324327
:100EF0005F5772697465204F4B00000022480068FC
:100F000040F001002049086000BF1F480068002031
:100F10000028FAD11C48006820F0F80040F080005A
:100F2000194908600020486000BF1748406800F079
:100F30000C000028F9D11448006820F08070124994
:100F4000086000BF1048006800F000700028F9D168
:100F50000D48006820F410200B49086000BF0A48C3
:100F6000006800F400300028F9D10748006820F438
:100F70008020054908600846406A40F08070486259
:100F800000208860704700000010024010B5434800
:100F9000806940F00400414988610846806940F456
:100FA000805088610846806940F0010088610846E9
:100FB000406940F0010048613948006839490843F8
:100FC00037490860084600683749084034490860D6
:100FD00008460068354908433149086030481030F8
:100FE000006840F004002E4910310860084600688F
:100FF00040F4003008600846006840F002000860D5
:101000002B48008820F0380040F00800284908806C
:101010000846008820F0020008800846008820F07A
:10102000010008800846008820F400600880084617
:10103000008820F0800008800846008840F4007096
:1010400008800846008840F4807008800846808840
:1010500040F0020088800846008840F004000880C4
:101060000846008840F0400008801248006B40F4B9
:101070008070104908630846006B40F01000086358
:101080000846006B40F0800008630846006B40F49F
:101090004050086308A000F08FF910BD0010024016
:1010A0000008014000003030FFFF3F3F000080801B
:1010B00000300140000002400A535049315F496E40
:1010C0006974204F4B20000010B500F001F810BDEE
:1010D0000CB50020019000903348006840F4803047
:1010E0003149086000BF3048006800F400300090CB
:1010F0000198401C0190009818B90198B0F5A06FB4
:10110000F1D12948006800F4003010B101200090AE
:1011100001E0002000900098012843D12348006896
:1011200040F01000214908600846006820F00300E4
:1011300008600846006840F0020008601A484068ED
:10114000194948600846406848600846406840F4CD
:10115000806048600846406820F47C10486008467B
:10116000406840F4E81048600846006840F080702D
:10117000086000BF0C48006800F000700028F9D03B
:101180000948406820F00300074948600846406865
:1011900040F00200486000BF0348406800F00C00C7
:1011A0000828F9D10CBD00000010024000200240C8
:1011B00010B51348006840F0010011490860084666
:1011C0004068104908400E494860084600680E49CA
:1011D00008400B4908600846006820F48020086039
:1011E0000846406820F4FE0048604FF41F00886005
:1011F000FFF76AFF4FF000600449086010BD00006F
:10120000001002400000FFF8FFFFF6FE08ED00E0CE
:101210004FF08040008A00F0010050B14FF0804054
:10122000008A20F001004FF080410882FF20014930
:10123000087070472400002010B50F48C06940F0C6
:1012400001000D49C8611C2000F0CCF848F69F4011
:101250004FF0804108854FF4FA6088858006808AC7
:1012600040F0010088820846008A20F001000882D0
:1012700002A000F0A1F810BD001002400A54494D30
:10128000325F496E6974204F4B20000010B5114841
:10129000008800F00100D8B10E48008820F001005D
:1012A0000C4908800C480088401C0B4908800846FF
:1012B000008878280CD1042205210020FFF7BAFA13
:1012C000042206490020FFF791FD00200249088012
:1012D00010BD000010040040280000202000002065
:1012E00010B51148C06940F002000F49C8611D20C7
:1012F00000F078F84BF67F300C4908804AF6C87049
:10130000091D088009481438008840F00100074989
:1013100014390880081F008820F00100091F088088
:1013200003A000F049F810BD00100240280400405E
:101330000A54494D335F496E6974204F4B200000B9
:1013400008B5002000900648008800F0200028B171
:101350000348001D00880249091D088008BD0000DF
:101360000038014010B51148806940F480400F49B1
:1013700088610846806940F0040088610C48008854
:1013800042F22C0108430A49088041F65250091FD5
:1013900008800848006820F4346040F492600549F1
:1013A0000860252000F01EF810BD0000001002406B
:1013B0000C3801400408014000210CE000BF084A3D
:1013C000128802F04002002AF9D00A46491C825CC9
:1013D000034B1B1D1A80425C002AEFD170470000AE
:1013E00000380140002809DB00F01F020121914074
:1013F0004209920002F1E022C2F800117047000099
:10140000FFF7B0FFFFF77AFDFFF7ACF9FFF714FF26
:10141000FFF766FFFFF73EFBFFF7C0FBFFF7B6FDE8
:1014200000F0D2F9FFF7FCFA00F03CF9002000F0E0
:10143000B5F90123754806C875A000F0C3FA4FF04E
:101440008040808940F001004FF08041888108464B
:10145000008840F0010008806F48008840F00100DB
:101460006D4908806C480C38008840F001006A49DA
:101470000C390880002404E0002068490855601CED
:1014800084B2142CF8DB142264490020FFF7AEFC70
:10149000BAE0634800780028FAD06248007838B192
:1014A00003216148FFF7FAF800205E49087006E062
:1014B00006215E48FEF7C4FFFF205A4908705C48C9
:1014C00000880A2190FBF1F05449087058480088C0
:1014D0000A2190FBF1F201FB120050494870554877
:1014E00000880A2190FBF1F04C498870514800882F
:1014F0000A2190FBF1F201FB12004849C8704C48E8
:1015000000880A2190FBF1F201FB1205484800888F
:1015100090FBF1F62B46324647A14A48FEF758FEAB
:101520000021084600F0D6F90123384806C845488E
:1015300000F048FA3F4800880A2190FBF1F201FBD5
:1015400012053C48008890FBF1F62B4632463EA13E
:101550003C48FEF73DFE2321002000F0BBF90123AB
:101560002A4806C8374800F02DFA1421002000F060
:10157000B1F92F4800880A2190FBF1F01A2806DD06
:101580000123354806C835A000F01CFA13E02848AE
:1015900000880A2190FBF1F0172806DA01232E4873
:1015A00006C830A000F00EFA05E001232A4806C85C
:1015B0002DA000F007FA3621002000F08BF91D481D
:1015C00000880A2190FBF1F0282806DD012322483B
:1015D00006C822A000F0F6F913E0164800880A2198
:1015E00090FBF1F01E2806DA01231B4806C81DA057
:1015F00000F0E8F905E00123174806C81AA000F03A
:10160000E1F900200649087043E700004800002087
:101610004C6F6164696E67000C040040200000207C
:1016200024000020250000201000002005000020DC
:101630001C0000201E00002074203D202B25692E58
:10164000256900009804002068203D2025692E258A
:101650006925252000000000400000204849474837
:10166000542000004C4F57004E4F524D414C00004B
:101670000A49096841F48021084A116008498881B3
:1016800000BF0749098901F080010029F9D1034908
:10169000096841F00401014A1160704710080140D7
:1016A000003001401448006840F00800124908600A
:1016B0001248006B20F0010010490863104888634D
:1016C0001048C863081548630846406820F48070D5
:1016D00048600948006840F48020074908600748CE
:1016E000006B40F02000054908630846006B40F09D
:1016F000010008637047000010080140000002402C
:101700000C30014018050020F0B503461446802B2C
:1017100040DA40293EDA002B3CDB00293ADB012C81
:101720001CD1CD1701EB5575ED1003EBC5151A4E05
:10173000755D0A46CE1701EB5676F610A1EBC6078B
:101740000126BE403543EEB20846CD1701EB557574
:10175000ED1003EBC515104F7E551BE0D4B9CD1726
:1017600001EB5575ED1003EBC5150B4E755D0A4683
:10177000CE1701EB5676F610A1EBC6070126BE4048
:10178000B5430846CE1701EB5676F61003EBC616A6
:10179000014FBD55F0BD0000180500200146002096
:1017A0000BE0012903D1FF22064B1A5403E011B9C3
:1017B0000022044B1A54421C90B2B0F5005FF0DBDB
:1017C000704700001805002010B53F48006843F23C
:1017D000303108433C490860084600684CF6C04177
:1017E00088433949086038481030006840F40030B8
:1017F000354910310860002404E0002033490855C1
:10180000601C84B2B4F5806FF7DB2F48103000689D
:1018100040F002002C49103108600846006840F092
:1018200004000860AE2000F0B9F8D52000F0B6F84A
:10183000802000F0B3F8A82000F0B0F83F2000F0BE
:10184000ADF8D32000F0AAF8002000F0A7F840205F
:1018500000F0A4F88D2000F0A1F8142000F09EF80C
:10186000202000F09BF8002000F098F8A12000F064
:1018700095F8C82000F092F8DA2000F08FF81220D6
:1018800000F08CF8812000F089F88F2000F086F8B5
:10189000D92000F083F8F12000F080F8DB2000F080
:1018A0007DF8402000F07AF8A42000F077F8A62018
:1018B00000F074F8AF2000F071F8002004490880AF
:1018C00048800120487110BD000801401805002023
:1018D00030000020014A1080518070473000002005
:1018E0002DE9FF4106461F46202E01DB7E2E03DD3B
:1018F000002004B0BDE8F081274800889DF804105E
:101900000844802806DC244840889DF805100844D7
:10191000402801DD0020ECE7002430E0A6F12000A3
:101920009DF8051000FB0140029931F81080002558
:1019300020E008FA05F000F4004058B1164A927809
:101940002244D1B2144A12782A44D0B23A46FFF760
:10195000DBFE0EE00FB9012300E000231A460E4B18
:101960009B782344D9B20C4B1B782B44D8B2FFF799
:10197000CBFE6D1C9DF80400A842DAD8641C9DF8CB
:101980000500A042CAD8044800889DF80410084405
:10199000014908803046ACE73000002000B503461E
:1019A0000748006840F40020054908601846FFF722
:1019B0005FFE0348006840F008000149086000BD70
:1019C000100801403FB504461D460CE020782B4628
:1019D000DDE90112FFF784FF2178884202D02078E8
:1019E00004B030BD641C20780028EFD12078F7E7E0
:1019F00021F00042A2F16052B2F5801F01F00043D5
:101A000028BFD2F17F6C0BD95FEA001C43EAC20207
:101A100042EB507018BF704728BF20F0010070479C
:101A2000B2F5801FBCBF184670474FEA410C1CF549
:101A3000001F02D2084600F018BD70B500F0C8FAC9
:101A400000000089FFF7F6BF4FF00040A0F58000CE
:101A50007047000010B591EA030F48BF83F00043C0
:101A600000F11283841A71EB030C05D2121943EBB7
:101A70000C03001B61EB0C01DFF824E14FEA115469
:101A8000A4EB135C1EEA430F18BF9EEA445F73D0B9
:101A900023EA0E03DCF1200E21EA045143F4801303
:101AA00032D322FA0CFE10EB0E0023FA0CFE41EBAF
:101AB0000E01CCF1200E03FA0EFE10EB0E0051F1D8
:101AC0000001B1F5801FCCF1200E32D201EB0451A0
:101AD00012FA0EF2BDE8104058BF7047401C38BFE4
:101AE0005FEA420218BF7047002814BF20F00100CF
:101AF00041F100014FEA410313F5001F38BF704761
:101B0000A1F1C04100F0B2BA012A43EB0302ACF1EB
:101B1000200CDCF11F0E32BF4FF0000E23FA0CF345
:101B200010EB030041EB0451B4EB115FD0D0A1EBFB
:101B3000045101F5801149085FEA300001EB0451BE
:101B40000ED350F1000038BF12FA0EFE08D1BDE8E6
:101B50001040C9E7401C38BF5FEA4202CAD1C3E760
:101B6000BDE810404FEA410313F5001F38BF70472E
:101B7000A1F1C04100F07ABA9EEA445F08D011EAB0
:101B80005E0FBDE8104004BF01F000410020704727
:101B9000BDE8104070B500F01BFA00BF64FBBE3E0C
:101BA0000000E0FF2DE9C04130B4DFF8A0C23CEAFC
:101BB000111418BF3CEA131400F0EC8081EA03050D
:101BC0001CEA111444EAD57418BF1CEA131500F07E
:101BD000C780A4EB05044FF0004545EAC12145EA62
:101BE000C32341EA505143EA525304F17F749942AE
:101BF00004F500344FEAC0204FEAC22208BF9042E9
:101C000000F09C804FEA13650FF24016765D4FEAB4
:101C1000134506FB05F7C7F1807706FB07F74FEA88
:101C2000D737A7FB03687642C8F58038A7FB06CEF6
:101C300038BFA8F1010807FB08E64FF0000EA6FB2D
:101C4000028CE6FB03CEDCF1000CCEF1004E38BF77
:101C5000AEF1010EA6FB0C584FF000074FF0000547
:101C6000E6FB0E87A1FB08C6A0FB07CE16EB0E060F
:101C700045F10005E1FB076515F1E04E7EBFA4F5D7
:101C800080345FEA46066D4116F1800745F1000594
:101C90004FEA17274FEA066647EA0567A6F1DE46D0
:101CA000B6F1805F4FEA15251FD9384624F0010CA4
:101CB00005EBC471BCF1FE6F01EB0C1102D8F0BC56
:101CC000BDE8008124425CBF01F5801E9EEAC47F0E
:101CD00002D4F0BCBDE80081244238D4F0BCA1F1AC
:101CE000C041BDE8004100F0C1B94FEAD22242EA4A
:101CF00043524FEAD323A7FB02864FEAD02040EAA3
:101D0000415007FB03661EEA0E0F4FEAD12105FB87
:101D1000026658BFA6EB0056B6EB00564FEA520ECD
:101D20004EEAC37E18EB0E0E56EB530EBDD518EBE4
:101D300002085E417F1C55F10005B6E74FF480159F
:101D40004FF000074FF000064FF00008ADE7F0BC81
:101D50004FF0000001F1C04101F00041BDE80081F9
:101D600011EA0C1F0CEA131500D00CE013EA0C1F4B
:101D700000F025804FF00000F0BC81EA030101F083
:101D80000041BDE80081F0BCBDE8004181EA0301EB
:101D900000F06CB9F0BCBDE8004170B500F018F976
:101DA000097EFC3E00F007B881EA03014FF0000015
:101DB00001F00041704781EA030100F057B9F0BC1F
:101DC000BDE800414FF0000021497047FFFDFBF9DD
:101DD000F7F5F4F2F0EEEDEBE9E8E6E4E3E1E0DE5E
:101DE000DDDBDAD8D7D5D4D3D1D0CFCDCCCBCAC8D0
:101DF000C7C6C5C4C2C1C0BFBEBDBCBBBAB9B8B7F7
:101E0000B6B5B4B3B2B1B0AFAEADACABAAA9A8A8E9
:101E1000A7A6A5A4A3A3A2A1A09F9F9E9D9C9C9BB7
:101E20009A99999897979695959493939291919062
:101E30008F8F8E8E8D8C8C8B8B8A898988888787F3
:101E40008685858484838382828181800000FF0768
:101E50000000F87FB0FA80F310FA03F10AD0C3F162
:101E60001D0303F580634FEA41504FEA035202EB32
:101E7000D12170474FF0000070470000DFF848C1E3
:101E800070B51CEA111E1EBF1CEA13159EEA0C0F4A
:101E900095EA0C0F00F06F8081EA030423EA4C13EB
:101EA0004EEAD47E21EA4C1141F4801143F48013B0
:101EB000AE44A1FB024CA0FB0365AEF17F7E361958
:101EC00055EB0C05A1FB034C4CF10003A0FB021CDD
:101ED00016EB0C06654153F10003094218BF46F0AA
:101EE000010613F4007F0BD14FEA03314FEA0530AE
:101EF000340341EA155140EA16506FF003020AE03C
:101F00004FEAC3214FEAC520F40241EA555140EAA5
:101F100056506FF0020202EB2E4201EB025585EAA9
:101F2000CE710AD05FEA440C18BF24F0004450F18F
:101F3000000041F1000120EAD47040F2FE7C6245CD
:101F400000D270BDA84214BF4FF080444FF040440F
:101F5000002E08BF0024BEF1806FA8BFA1F1C041D0
:101F6000BDE8704080F282804FF0000001F1C04176
:101F700001F0004170479EEA0C0F0CEA131518BFE0
:101F800095EA0C0F06D04FF0000081EA030E0EF028
:101F9000004170BD00F01CF88900013E00F007B858
:101FA00000F009B84FEA430C5FEA5C5C08D081EAB4
:101FB000030100F05BB84FEA410C5FEA5C5CF6D1CC
:101FC0004FF00000014970470000FF070000F87F54
:101FD0000EF1020E2EF0030E5EF8046B364205D4AD
:101FE000012A43EB030515F5001F12D8012841EB28
:101FF000010C1CF5001F0CD80ED14FEAD17C15F551
:10200000001F0CEB4C0C0CF1020C08BF4CEBD37C0A
:1020100004E04FF0080C01E04FEAD37C0CEB4C05D8
:1020200026FA05F606F00706B6F1040C06D20EEB0A
:10203000860CBDE870404CF0010C6047DFE80CF006
:10204000090B02024FF000414FF00000A1F5002102
:1020500070BD19461046012851EB010418BFD4F594
:10206000001484BF002001F0004170BD0808A0F5F5
:1020700000114FEA3101704710B591EA030F48BFD4
:1020800083F000433FF5EEAC841A71EB030C07D2EA
:1020900012198CF0004C43EB0C03001B61EB0C019C
:1020A000DFF8A4E14FEA1154A4EB135C1EEA430FDE
:1020B00018BF9EEA445F00F0B08023EA6E035242EC
:1020C00021EA0451C3EB6E0338BF5B1EDCF1200E26
:1020D00025D322FA0CFE10EB0E0043FA0CFE41EB66
:1020E0000E01CCF1200E03FA0EFE10EB0E0051F1A2
:1020F0000001CCF1200E29D412FA0EF201EB0451AA
:10210000BDE8104058BF7047401C1CBFB2F1004FE3
:10211000704700280CBF491C20F00100704712EBEB
:10212000020E43EB030218BF4FF0010E4EEA4202CB
:10213000ACF1200CDCF11E0E54D943FA0CFE10EB6E
:102140000E0051F1FF31CCF11E0ED5D50EF1010E6E
:1021500012FA0EFE404141EB010101EB445C5FEAE3
:102160005C5C10D910EBDE7001EB045138BFBEF19E
:10217000004FBDE8104018BF704700280CBF491C35
:1021800020F00100704730D24FEAD42C11F5001135
:1021900024F400641BD0B1FA81F20B3AA41AA41EF5
:1021A000D2F12003914030FA03F31943904001EB40
:1021B000CC71002C01EB0451BDE81040A8BF704762
:1021C00001F1C0414FF0000001F000417047B0FA4A
:1021D00080F310FA03F100D110BDE41A173C480552
:1021E000C90AE4E701EB045110BD491001EB0451A9
:1021F000BDE810404FEA300002E04FF000017047A8
:102200004A0008BF0042F8D0B2F5001F28BF70474F
:1022100001F000414FF0000070479EEA445F07D094
:1022200011EA5E0FBDE8104004BF00210020704796
:10223000BDE8104070B5FFF7CBFE00BF40DFF63EB3
:1022400083F00041104670470000E0FF43004FEA72
:10225000D30C4FEA3C0C43401FBF40070CF16051C8
:1022600013F0FE4F70471CF0006F03D100200CF0FC
:10227000004170470CF0004343EA507010B540EA4B
:10228000CC0000F0ACF800BF000000924FEA000163
:10229000FFF7ECBE4FF000414FF00000A1F5002128
:1022A0007047000041000B0ED3F19E0208D950F494
:1022B00000034FEA032323FA02F048BF404270476D
:1022C00010B500F08CF800BF4992248000207047C0
:1022D0006FF0004282EA2000704700004FF47F0C4C
:1022E0001CEAD0121EBF1CEAD11392EA0C0F93EA2B
:1022F0000C0F00F0478090EA010F48BF42F4807253
:102300004FF0004C4CEA00204CEA012102EB0302A2
:10231000A0FB0113A2F50002002918BF43F001033E
:102320005B0028BF4FEA330342EB22425FEA132CE3
:102330004CEBC2502EBFBCEB436FB2F57C0F704725
:102340004FEA036CBCF1004F08BF20F00100B2F56A
:102350007C0F38BF70470BD582F0FF0212F5803F2B
:10236000C8BF704700F1C040D8BF00F000407047C0
:1023700000F5000C5FEA4C0C48BF7047B0F1C0405C
:1023800000F073B890EA010F0CEAD11348BF42F491
:102390008072624538BF634504D280EA010000F0D4
:1023A0000040704710B500F01AF800BF8900013EE8
:1023B00000F007B800F009B85FEA410C5FEA1C6C56
:1023C00008D080EA010000F050B85FEA400C5FEAF4
:1023D0001C6CF6D14FF00040A0F5800070470EF164
:1023E000020E2EF0030E5EF8044B244204D44FEA92
:1023F0004102B2F17F4F11D84FEA4003B3F17F4F52
:102400000CD80ED14FEAD07CB2F17F4F0CEB4C0CC4
:102410000CF1020C08BF4CEBD17C04E04FF0080C2F
:1024200001E04FEAD17C0CEB4C0324FA03F404F0F6
:102430000704B4F1040C06D20EEB840CBDE8104086
:102440004CF0010C6047DFE80CF0070802024FF087
:102450000040A0F5800010BD0846420018BFD2F130
:10246000807288BF00F0004010BDFF2141EAD050CB
:10247000C0057047000000000000000000000000E0
:10248000000000000000000000100010001000100C
:1024900000100010000000100000000000280028BC
:1024A0000028000000000000000000000000000004
:1024B00000240024007C00240048007C00480048E0
:1024C0000000000000380054005000380014005490
:1024D0000054003800100000002000540058003064
:1024E000002800540014000800000000001000281C
:1024F00000280010003400480048003400000000AC
:10250000001000100010000000000000000000009B
:102510000000000000080010002000200020002023
:102520000020002000100008002000100008000813
:102530000008000800080008001000200010003803
:102540000010002800000000000000000000000053
:102550000000000000100010007C001000100000BF
:10256000000000000000000000000000000000006B
:10257000000000100010001000000000000000002B
:102580000000003800000000000000000000000013
:10259000000000000000000000000010000000002B
:1025A000000800080010001000100010002000209B
:1025B000000000000038004400440054004400447F
:1025C00000440038000000000010003000500010EF
:1025D000001000100010001000000000003800443F
:1025E00000440004000800100020007C00000000EF
:1025F00000380044000400180004000400440038BF
:102600000000000000080018002800280048007C96
:102610000008000800000000007C00400040007836
:1026200000040004004400380000000000380044AA
:1026300000400078004400440044003800000000DE
:10264000007C000400080010001000200020002082
:1026500000000000003800440044003800440044FA
:1026600000440038000000000038004400440044EA
:10267000003C00040044003800000000000000009E
:10268000001000000000000000000010000000002A
:10269000000000000000001000000000000000101A
:1026A0000010001000000000000C0030004000305E
:1026B000000C000000000000000000000000007C92
:1026C0000000007C0000000000000000000000008E
:1026D0000060001800040018006000000000000006
:1026E0000038004400040008001000100000001032
:1026F0000000000000380044004C0054005C004022
:1027000000400038000000000010002800280028C9
:102710000028007C004400440000000000780044D1
:1027200000440078004400440044007800000000A9
:1027300000380044004000400040004000440038A1
:1027400000000000007000480044004400440044C1
:102750000048007000000000007C00400040007C49
:10276000004000400040007C00000000007C004071
:1027700000400078004000400040004000000000A1
:102780000038004400400040005C00440044003831
:1027900000000000004400440044007C0044004469
:1027A0000044004400000000003800100010001039
:1027B00000100010001000380000000000040004A9
:1027C000000400040004000400440038000000007D
:1027D0000044004800500060005000480048004499
:1027E0000000000000400040004000400040004069
:1027F0000040007C000000000044006C006C0054AD
:102800000044004400440044000000000044006410
:10281000006400540054004C004C004400000000D0
:1028200000380044004400440044004400440038A0
:10283000000000000078004400440044007800409C
:102840000040004000000000003800440044004404
:1028500000440044005400380004000000780044A4
:102860000044004400780048004800440000000094
:1028700000380044004000300008000400440038E4
:1028800000000000007C001000100010001000107C
:102890000010001000000000004400440044004408
:1028A000004400440044003800000000004400449C
:1028B000004400280028002800100010000000003C
:1028C00000440044005400540054006C00280028C8
:1028D000000000000044002800280010001000281C
:1028E00000280044000000000044004400280028A4
:1028F000001000100010001000000000007C000418
:1029000000080010001000200040007C00000000C3
:10291000001800100010001000100010001000102F
:1029200000100018002000200010001000100010FF
:102930000008000800000000003000100010001027
:1029400000100010001000100010003000100028CF
:10295000002800440000000000000000000000000B
:102960000000000000000000000000000000000067
:10297000000000FE00200010000000000000000029
:1029800000000000000000000000000000380044CB
:10299000003C0044004C00340000000000400040B7
:1029A0000058006400440044006400580000000027
:1029B000000000000038004400400040004400389F
:1029C00000000000000400040034004C00440044F7
:1029D000004C0034000000000000000000380044FB
:1029E000007C00400044003800000000000C001093
:1029F000007C00100010001000100010000000000B
:102A0000000000000034004C00440044004C00343E
:102A10000004007800400040005800640044004476
:102A2000004400440000000000100000007000108E
:102A30000010001000100010000000000010000046
:102A4000007000100010001000100010001000E0D6
:102A50000040004000480050006000500048004422
:102A600000000000007000100010001000100010A6
:102A7000001000100000000000000000007800546A
:102A800000540054005400540000000000000000F6
:102A9000005800640044004400440044000000006A
:102AA00000000000003800440044004400440038A6
:102AB00000000000000000000058006400440044D2
:102AC0000064005800400040000000000034004C4A
:102AD00000440044004C00340004000400000000E6
:102AE000005800640040004000400040000000002A
:102AF00000000000003800440030000800440038A6
:102B000000000000002000200078002000200020AD
:102B100000200018000000000000000000440044F5
:102B200000440044004C003400000000000000009D
:102B30000044004400280028002800100000000085
:102B400000000000005400540054006C00280028CD
:102B500000000000000000000044002800100010E9
:102B60000028004400000000000000000044004471
:102B70000028002800100010001000600000000075
:102B8000007C0008001000200040007C00000000D5
:102B9000001800100010001000200020001000108D
:102BA000001000180010001000100010001000109D
:102BB0000010001000100010003000100010001075
:102BC0000008000800100010001000300000000095
:102BD00000000074004C0000000000000000000035
:102BE00000000000000000000000000000000000E5
:102BF00000000000000000000000000000000000D5
:102C0000000000000000000C000C000C000C000C88
:102C1000000C000C000C000C000C000C0000000C60
:102C2000000C0000000000000000001B001B001B47
:102C3000001B001B0000000000000000000000005E
:102C400000000000000000000000000000008019EB
:102C5000801980198019C07FC07F80190033C07F20
:102C6000C07F003300330033003300000000000059
:102C70000000001E003F807580650074003C001E4F
:102C800000078005806580658075003F001E000498
:102C9000000400000000007000D840D8C0D880D9DF
:102CA00000730006000C801BC036C066C046C0061C
:102CB00080030000000000000000001E003F003301
:102CC00000330033001E000CC03CC066806380618E
:102CD0008063C03E801C0000000000000000000C6B
:102CE000000C000C000C000C0000000000000000B4
:102CF00000000000000000000000000000000000D4
:102D0000800000010003000600060004000C000C17
:102D1000000C000C000C000C000400060006000370
:102D200000018000002000100018000C000C0004BE
:102D30000006000600060006000600060004000C5F
:102D4000000C0018001000200000000C002D003FB7
:102D5000001E003300000000000000000000000022
:102D60000000000000000000000000000000000063
:102D70000000000C000C000C000CC0FFC0FF000C99
:102D8000000C000C000C000000000000000000001F
:102D90000000000000000000000000000000000033
:102DA00000000000000000000000000C000C000407
:102DB0000004000800000000000000000000000007
:102DC000000000000000001E001E000000000000C7
:102DD00000000000000000000000000000000000F3
:102DE00000000000000000000000000000000000E3
:102DF0000000000C000C00000000000000000003B8
:102E0000000300030006000600060006000C000C8C
:102E1000000C000C00180018001800000000000052
:102E20000000001E003F0033806180618061806D82
:102E3000806D8061806180610033003F001E000072
:102E40000000000000000006000E001E00360026F4
:102E50000006000600060006000600060006000642
:102E600000060000000000000000001E003F80730C
:102E700080618061800100030006000C00180030B2
:102E80000060807F807F0000000000000000001CC8
:102E9000003E006300630003000E000E000380018B
:102EA000800180618073003F001E00000000000070
:102EB00000000006000E000E001E001E0016003668
:102EC00000360066807F807F000600060006000056
:102ED000000000000000007F007F006000600060D4
:102EE000006E007F80638001800180618073003FFD
:102EF000001E0000000000000000001E003F8033A4
:102F000080610060006E007F8073806180618061FD
:102F10008033003F001E0000000000000000807FA2
:102F2000807F80010003000300060006000C000CF7
:102F3000000C000800180018001800000000000035
:102F40000000001E003F8063806180610021001E40
:102F5000003F8061806180618061003F001E000051
:102F6000000000000000001E003F007380618061CF
:102F700080618073803F801D800180610073003F0D
:102F8000001E000000000000000000000000000023
:102F90000000000C000C0000000000000000000019
:102FA0000000000C000C0000000000000000000009
:102FB0000000000000000000000C000C00000000F9
:102FC000000000000000000C000C000400040008D9
:102FD000000000000000000080008003000E0038A8
:102FE00000600038000E8003800000000000000038
:102FF0000000000000000000000000000000807FD2
:10300000807F00000000807F807F000000000000C3
:1030100000000000000000000000000000000000B0
:1030200000400070001C000780010007001C0070B9
:103030000040000000000000000000000000001F31
:10304000803FC071C060C000C00180030007000E57
:10305000000C000C0000000C000C00000000000040
:103060000000001E003F803180718063806F806DA2
:10307000806D806F806700600032003E001C0000A1
:10308000000000000000000E000E001B001B001BD3
:10309000001B80318031803F803F8031C060C06044
:1030A000C0600000000000000000007C007E0063A3
:1030B000006300630063007E007E006380618061C6
:1030C0008063007F007E0000000000000000001E02
:1030D000003F80318061006000600060006000603F
:1030E000006080618031003F001E00000000000091
:1030F0000000007C007F00638063806180618061EC
:1031000080618061806100630063007E007C00005C
:10311000000000000000807F807F00600060006091
:103120000060007F007F0060006000600060807FC2
:10313000807F0000000000000000807F807F006032
:10314000006000600060007F007F00600060006041
:103150000060006000600000000000000000001E31
:10316000003F8031806100600060006080638063A8
:10317000806180618031803F001E000000000000FF
:103180000000806180618061806180618061807FFA
:10319000807F8061806180618061806180610000EA
:1031A000000000000000003F003F000C000C000C7D
:1031B000000C000C000C000C000C000C000C003F7C
:1031C000003F00000000000000008001800180013D
:1031D0008001800180018001800180018061806127
:1031E0008073003F001E0000000000000000C0606F
:1031F0008061006300660066006C0078007C0066F9
:103200000066006380618061C06000000000000013
:10321000000000600060006000600060006000600E
:1032200000600060006000600060807F807F0000C0
:10323000000000000000C071C071C07BC07AC06A8D
:10324000C06AC06EC064C060C060C060C060C06062
:10325000C060000000000000000080718071807973
:1032600080798079806D806D806D806580678067F2
:103270008067806380630000000000000000001E83
:10328000003F003380618061806180618061806186
:10329000806180610033003F001E000000000000DC
:1032A0000000007E007F80638061806180618063B8
:1032B000007F007E00600060006000600060000031
:1032C000000000000000001E003F003380618061AC
:1032D0008061806180618061806580670033803FAC
:1032E000401E0000000000000000007E007F8063A0
:1032F000806180618063007F007E00660063006300
:1033000080618061C0600000000000000000000ECD
:10331000001F8031803100300038001E000780031C
:10332000806180618031003F001E000000000000CD
:103330000000C0FFC0FF000C000C000C000C000CD3
:10334000000C000C000C000C000C000C000C000029
:103350000000000000008061806180618061806108
:103360008061806180618061806180618073003FE5
:10337000001E0000000000000000C060C060C060CF
:10338000803180318031001B001B001B001B000EB0
:10339000000E000E00040000000000000000C0C08D
:1033A000C0C0C0C0C0C0C0C0C0CC804C804C805E1B
:1033B00080528052807380618061000000000000B4
:1033C0000000C0C0806080610033003B001E000C24
:1033D000000C001E001F003B80718061C0C0000017
:1033E000000000000000C0C0806180610033003335
:1033F000001E001E000C000C000C000C000C000C49
:10340000000C0000000000000000803F803F8001B1
:10341000000300030006000C000C00180018003028
:103420000060807F807F000000000000000F000F20
:10343000000C000C000C000C000C000C000C000C2C
:10344000000C000C000C000C000C000C000F000F16
:103450000000001800180018000C000C000C000CF4
:10346000000600060006000600030003000300003B
:1034700000000000001E001E0006000600060006F8
:10348000000600060006000600060006000600060C
:1034900000060006001E001E0000000C000C001EAE
:1034A00000120033003380618061000000000000E2
:1034B000000000000000000000000000000000000C
:1034C00000000000000000000000000000000000FC
:1034D000000000000000000000000000E0FF00000D
:1034E000000000380018000C000000000000000080
:1034F00000000000000000000000000000000000CC
:103500000000000000000000000000000000001F9C
:10351000803F80618001801F803F80618063807F69
:10352000C038000000000000000000600060006083
:103530000060006E007F80738061806180618061C7
:103540008073007F006E000000000000000000009B
:10355000000000000000001E003F807380610060DA
:10356000006080618073003F001E000000000000CA
:1035700000008001800180018001801D803F8073F8
:1035800080618061806180618073803F801D000068
:103590000000000000000000000000000000001E0D
:1035A000003F00738061807F807F00608071003FFA
:1035B000001E0000000000000000C007C00F000C4B
:1035C000000C807F807F000C000C000C000C000CB5
:1035D000000C000C000C00000000000000000000C7
:1035E00000000000801D803F8073806180618061E9
:1035F00080618073803F801D80018063007F003E7A
:1036000000000060006000600060006F807F8071DB
:103610008061806180618061806180618061000083
:103620000000000000000006000600000000003E50
:10363000003E000600060006000600060006000622
:103640000006000000000000000600060000000068
:10365000003E003E000600060006000600060006CA
:103660000006000600060046007E003C00000060E8
:10367000006000600060806100630066006C007C98
:103680000076006300638061C060000000000000FD
:103690000000003E003E0006000600060006000690
:1036A00000060006000600060006000600060000F0
:1036B000000000000000000000000000000080DDAD
:1036C000C0FFC0CEC0CCC0CCC0CCC0CCC0CCC0CC65
:1036D000C0CC00000000000000000000000000005E
:1036E0000000006F807F80718061806180618061F7
:1036F0008061806180610000000000000000000027
:10370000000000000000001E003F807380618061A7
:10371000806180618073003F001E00000000000097
:103720000000000000000000006E007F80738061D8
:103730008061806180618073007F006E0060006046
:10374000006000600000000000000000801D803F5D
:10375000807380618061806180618073803F801DA3
:103760008001800180018001000000000000000055
:1037700000000067803F003900300030003000302A
:1037800000300030003000000000000000000000A9
:10379000000000000000001E803F80610060007F8C
:1037A000803F80018061007F001E0000000000005B
:1037B00000000000000800180018007F007F0018BB
:1037C00000180018001800180018801F800F000053
:1037D0000000000000000000000000000000806108
:1037E0008061806180618061806180618063807FB1
:1037F000803D00000000000000000000000000000C
:103800000000C060803180318031001B001B001B34
:10381000000E000E00060000000000000000000086
:1038200000000000000080DD80DD80DD00550055D7
:103830000055007700770022002200000000000001
:103840000000000000000000000080610033003331
:10385000001E000C000C001E0033003380610000CD
:103860000000000000000000000000008061806196
:10387000803100330033001B001B001B000E000EC4
:10388000000E001C007C0070000000000000000022
:103890000000C07FC07F800100030006000C0018FC
:1038A0000030C07FC07F0000000000008003800760
:1038B00000060006000600060006000E001C001CA4
:1038C000000E0006000600060006000680078003C2
:1038D00000060006000600060006000600060006B8
:1038E00000060006000600060006000600060006A8
:1038F000000600060038003C000C000C000C000C18
:10390000000C000E00070007000E000C000C000C5D
:10391000000C000C003C003800000000000000001B
:103920000000000000008038807F00470000000099
:103930000000000000000000000000000000000087
:103940000000000000000000000000000000000077
:103950000000000000000000000000000000000067
:103960000000000000000000000000000000000057
:10397000E003E003E003E003E003E003E003E0032F
:10398000C003C003C001C001C001C001C0010000EC
:1039900000000000E003E003E0030000000000007E
:1039A000000000003C1E3C1E3C1E3C1E3C1E3C1EFB
:1039B0003C1E0000000000000000000000000000AD
:1039C00000000000000000000000000000000000F7
:1039D0000000000000000000CE01CE03DE039E03C5
:1039E0009C039C07FF3FFF7F3807380F780F780F45
:1039F000780EFFFFFFFFF01EF01CE01CE03CE03DF6
:103A0000E03900000000000000000000FC03FE0F91
:103A1000EE1FE01EE01EE01EE01EE01FE00FE007CC
:103A2000F003FC01FE01FE01FE01FE01FE01FE01AC
:103A3000FE3DFC3FF00FE001E0010000000000004F
:103A4000033E07F78FE78EE79EE3BCE3B8E7F8E7AE
:103A5000F0F7E03FC001FF03FF07F307F30FF31E8A
:103A6000F33CF338F3787FF03FE000000000000003
:103A700000000000E007F80F780F781F781F781F0C
:103A8000780FF00FE00F801FC37FC3FBE7F3F7F160
:103A9000F7F0FFF07FF03EF87F7CFF3FEF1F000064
:103AA0000000000000000000E003E003E003E0038A
:103AB000E003C003C001000000000000000000009F
:103AC00000000000000000000000000000000000F6
:103AD0000000000000000000000000003F007C002B
:103AE000F001E001C003C00780078007800F000FCE
:103AF000000F000F000F000F000F800F80078007DE
:103B0000C007C003E001F0017C003F000F0000008F
:103B1000007E001FC007C003E001F001F000F000CC
:103B2000F800780078007800780078007800F800D5
:103B3000F000F000F001E001C003C007001F007EAC
:103B400000780000E003C003C001CE39FF3F7F3F93
:103B500020037003F807780F3C1F380600000000B0
:103B60000000000000000000000000000000000055
:103B70000000000000000000000000000000000045
:103B800000000000C001C001C001C001C001C001AF
:103B9000C001FFFFFFFFC001C001C001C001C001A3
:103BA000C001000000000000000000000000000054
:103BB0000000000000000000000000000000000005
:103BC0000000000000000000000000000000E00312
:103BD000E003E003E003E001E001E001C001800355
:103BE00000000000000000000000000000000000D5
:103BF000000000000000FE3FFE3F0000000000004B
:103C000000000000000000000000000000000000B4
:103C100000000000000000000000000000000000A4
:103C20000000000000000000000000000000000094
:103C3000000000000000E003E003E003E0030000F8
:103C400000000000000000000F000F001E001E001A
:103C50003C003C0078007800F000F000E001E0015A
:103C6000C003C00380078007000F000F001E001E66
:103C7000003C003C0078007800F00000F007F80FEE
:103C80007C1F3E3E1E3C1F7C1F7C0F780F780F78F8
:103C90000F780F780F780F781F7C1F7C1E3C3E3EFC
:103CA0007C1FF80FF007000000000000000000007B
:103CB000F000F007F03FF03FF001F001F001F001FB
:103CC000F001F001F001F001F001F001F001F0016C
:103CD000F001F001F001FF3FFF3F00000000000095
:103CE00000000000E00FF83F7C3C3C003E003E003E
:103CF0003E003C003C007C00F800F001E003C007FF
:103D00008007000F001E003E003CFE3FFE3F00000B
:103D10000000000000000000F00FF81F7C1C3E00B7
:103D20003E003E003C003C00F800F00FF80F7C0025
:103D30003E001E001E001E001E003E007C1CF81FE0
:103D4000E01F000000000000000000007800F80004
:103D5000F800F801F803F807F807780F781E781EC6
:103D6000783C78787878FFFFFFFF7800780078005B
:103D700078007800780000000000000000000000DB
:103D8000FC1FFC1FFC1F001E001E001E001E001E4C
:103D9000E01FF81FFC007C003E003E001E003E00BD
:103DA0003E003C007C1CF81FE01F000000000000EB
:103DB00000000000FC01FE078E0F001F001E003EE9
:103DC000003C003CF83DFC3F3E7F1F7E0F3C0F3C1B
:103DD0000F3C0F3C0F3E1F1E3E1FFC0FF003000068
:103DE0000000000000000000FF3FFF3FFF3F0F000A
:103DF0001E001E003C0038007800F000F000E001DA
:103E0000E001C003C0038007800F800F000F001F78
:103E1000001F00000000000000000000F807FC0F79
:103E20003E1F1E1E1E3E1E3E1E1E3C1FF80FF007AC
:103E3000F80FFC1E3E3E1F3C1F7C0F7C0F7C1F3C7E
:103E40003E3FFC1FF00700000000000000000000E3
:103E5000F007F80F7C1E3E3C1E3C1F7C1F7C1F7C25
:103E60001F7C1F3C3F3EFF1FEF071F001E001E0070
:103E70003E003C00F838F03FE01F0000000000006A
:103E80000000000000000000000000000000000032
:103E9000E003E003E003E003000000000000000096
:103EA000000000000000E003E003E003E003000086
:103EB0000000000000000000000000000000000002
:103EC00000000000E003E003E003E0030000000066
:103ED00000000000000000000000E003E003E00339
:103EE000E003E001E001E001C00380030000000006
:103EF000000000000000000003000F003F00FC0075
:103F0000F003C00F003F00FE003FC00FF003FC00B5
:103F10003F000F0003000000000000000000000050
:103F20000000000000000000000000000000000091
:103F300000000000FFFFFFFF000000000000FFFF87
:103F4000FFFF000000000000000000000000000073
:103F50000000000000000000000000000000000061
:103F600000E000F8007E801FE007F8017E001F00DF
:103F70007E00F801E007801F007E00F800E00000EE
:103F80000000000000000000F01FFC3F3E381F381A
:103F90001F381E001E003C007800F000E001C00346
:103FA000C003C007C007000000000000C007C00732
:103FB000C00700000000000000000000F803FE0F32
:103FC0001E1F0F3E7F3CFF78EF79C773C7F38FF357
:103FD0008FF38FF39FF39FF3FF73FF7BF779003C21
:103FE0001C1FFC0FF8030000000000000000000090
:103FF000000000000000E003E003F007F007F00716
:10400000780F780F7C0E3C1E3C1E3E3CFE3FFF3F6F
:104010001F780F780FF007F007F000000000000095
:1040200000000000000000000000F83FFC3F3E3CA4
:104030001E3C1E3C1E3C3E3C7C3CF03FF83F7E3C20
:104040001F3C1F3C0F3C0F3C1F3CFE3FF83F000055
:104050000000000000000000000000000000FF0160
:10406000FF07871F003E003C007C00780078007846
:1040700000780078007C007C003E003F831FFF0733
:10408000FF01000000000000000000000000000030
:104090000000F07FFC7F7E781F781F780F780F7804
:1040A0000F780F780F780F780F780F781F781E78B9
:1040B0007E78F87FE07F0000000000000000000034
:1040C000000000000000FF3FFF3F003E003E003EBA
:1040D000003E003E003EFE3FFE3F003E003E003EF2
:1040E000003E003E003EFF3FFF3F0000000000009A
:1040F00000000000000000000000FF1FFF1F001E66
:10410000001E001E001E001E001EFF1FFF1F001EBF
:10411000001E001E001E001E001E001E001E0000CD
:104120000000000000000000000000000000FE038E
:10413000FF0F871F003E007C007C007800F800F82D
:104140007FF87FF80F780F7C0F7C0F3E8F1FFF0FDB
:10415000FE0300000000000000000000000000005E
:1041600000001F7C1F7C1F7C1F7C1F7C1F7C1F7C12
:104170001F7CFF7FFF7F1F7C1F7C1F7C1F7C1F7CA1
:104180001F7C1F7C1F7C000000000000000000005E
:10419000000000000000FF3FFF3FE003E003E003FA
:1041A000E003E003E003E003E003E003E003E003F7
:1041B000E003E003E003FF3FFF3F000000000000DA
:1041C00000000000000000000000FC1FFC1F7C003D
:1041D0007C007C007C007C007C007C007C007C00FF
:1041E0007C007C0078007800F838F03FC03F000089
:1041F00000000000000000000000000000001F3C64
:104200001E3C3C3C783CF03CE03DE03FC03F803F02
:10421000C03FE03FF03DF03C783C7C3C3E3C1F3CE6
:104220000F3C000000000000000000000000000043
:104230000000003E003E003E003E003E003E003ECC
:10424000003E003E003E003E003E003E003E003E7E
:10425000003EFF3FFF3F00000000000000000000A4
:104260000000000000001FF81FFC1FFC3FFE3FFE87
:104270003FFE7FFF77FF77FFF7F7E7F7E7F3E7F317
:10428000C7F307F007F007F007F000000000000098
:10429000000000000000000000000F7C0F7C0F7E7B
:1042A0000F7F0F7F8F7F8F7FCF7FEF7BEF79FF793E
:1042B000FF78FF787F783F783F781F781F7800007D
:1042C0000000000000000000000000000000F007F7
:1042D000FC1F3E3E1F7C0F780F780FF80FF80FF889
:1042E0000FF80FF80FF80F780F781F7C3E3EFC1F79
:1042F000F0070000000000000000000000000000C7
:104300000000FC3FFF3F1F3E0F3E0F3E0F3E0F3EA3
:104310001F3E3F3EFC3FF03F003E003E003E003E61
:10432000003E003E003E00000000000000000000D3
:10433000000000000000F007FC1F3E3E1F7C0F78CD
:104340000F780FF80FF80FF80FF80FF80FF80F7835
:104350000F781F7C3E3EFC1FF8077C003F000F00DB
:1043600003000000000000000000F03FFC3F7E3C26
:104370003E3C1E3C1E3C3E3C3C3CFC3CF03FE03F97
:10438000F03DF83C7C3C3E3C1E3C1F3C0F3C00009A
:104390000000000000000000000000000000FC071A
:1043A000FE1F0E3E003C003C003C003EC01FF80FCC
:1043B000FE037F001F000F000F001F203E3CFC3F4C
:1043C000F01F0000000000000000000000000000DE
:1043D0000000FFFFFFFFE003E003E003E003E00372
:1043E000E003E003E003E003E003E003E003E003B5
:1043F000E003E003E0030000000000000000000014
:104400000000000000000F7C0F7C0F7C0F7C0F7CF5
:104410000F7C0F7C0F7C0F7C0F7C0F7C0F7C0F7C44
:104420001E3C1E3C3E3EFC1FF0070000000000004A
:104430000000000000000000000007F007F007F88F
:104440000F780F7C1E3C1E3C1E3E3C1E3C1F781FFE
:10445000780FF80FF007F007F007E003E003000023
:10446000000000000000000000000000000003E069
:1044700003F003F007F0E7F3E7F3E7F3E773F77B05
:10448000F77FFF7F7F7F7F7F7E7F7E3F3E3E3E3E8A
:104490003E3E0000000000000000000000000000A0
:1044A000000007F80F7C1E3E3E3E3C1FF80FF00751
:1044B000E007E003E003F007F80F7C0F7C1E3E3CB2
:1044C0001F780F780FF000000000000000000000CF
:1044D00000000000000007F807780F7C1E3C1E3E1D
:1044E0003C1F780FF80FF007E003E003E003E00360
:1044F000E003E003E003E003E0030000000000004D
:1045000000000000000000000000FF7FFF7F0F00A0
:104510001F003E007C00F800F000E001E003C0074F
:10452000800F000F001E003E007CFF7FFF7F000019
:104530000000000000000000FF07800780078007E0
:104540008007800780078007800780078007800733
:104550008007800780078007800780078007800723
:10456000800780078007FF07FF07000000780078BA
:10457000003C003C001E001E000F000F800780075B
:10458000C003C003E001E001F000F0007800780013
:104590003C003C001E001E000F000F000700000042
:1045A000F07FF000F000F000F000F000F000F0000C
:1045B000F000F000F000F000F000F000F000F0007B
:1045C000F000F000F000F000F000F000F000F07FEC
:1045D000F07F0000C000C001C001E003E003F0076D
:1045E000F0077807780F380F3C1E3C1E1E3C1E3C1F
:1045F0000F380F780778000000000000000000006E
:1046000000000000000000000000000000000000AA
:10461000000000000000000000000000000000009A
:10462000000000000000000000000000000000008A
:104630000000FFFFFFFF000000000000F00000008E
:10464000000000000000000000000000000000006A
:10465000000000000000000000000000000000005A
:10466000000000000000000000000000000000004A
:10467000000000000000000000000000F80FFC3FF8
:104680007C3C3E003E003E00FE07FE1F3E3E3E7C60
:104690003E783E7C7E7CFF3FCF1F00000000000084
:1046A00000000000003C003C003C003C003C003CA2
:1046B000F83DFE3F3E3F1F3E0F3C0F3C0F3C0F3C82
:1046C0000F3C0F3C1F3C1E3C3E3FFC3FF03B0000BC
:1046D00000000000000000000000000000000000DA
:1046E00000000000FE03FF0F871F003E003E003C5D
:1046F000007C007C007C003C003E003E871FFF0FDA
:10470000FE03000000000000000000001F001F006A
:104710001F001F001F001F00FF07FF1F3F3E1F3C21
:104720001F7C1F7C1F7C1F781F781F7C1F7C3F3CD9
:104730007F3EFF1FDF0F00000000000000000000B0
:10474000000000000000000000000000F803FC0F63
:104750003E1F1E3E1F3C1F7CFF7FFF7F007C007CB6
:10476000003C003E071FFF0FFE030000000000009A
:1047700000000000FF01E103C003C007C007C0073D
:10478000FF7FFF7FC007C007C007C007C007C00783
:10479000C007C007C007C007C007C007C0070000A8
:1047A0000000000000000000000000000000000009
:1047B00000000000EF07FF1F7F3E1F3C1F7C1F7C97
:1047C0001F781F781F781F7C1F7C3F3C7F3EFF1F98
:1047D000DF0F1E001E001E007C38F83F003C003C2E
:1047E000003C003C003C003CFC3DFE3F9E3F1F3F28
:1047F0001F3E1F3C1F3C1F3C1F3C1F3C1F3C1F3CDF
:104800001F3C1F3C1F3C0000000000000000000097
:10481000F001F0010000000000000000E07FE07FF8
:10482000E001E001E001E001E001E001E001E00180
:10483000E001E001E001E001E00100000000000013
:1048400000000000F800F800000000000000000078
:10485000F83FF83FF800F800F800F800F800F8001A
:10486000F800F800F800F800F800F800F800F80088
:10487000F800F000F071E07F003C003C003C003CA0
:10488000003C003C1F3C3E3C7C3CF83CF03DE03DA5
:10489000C03FC03FE03FF03DF83C7C3C3E3C1F3C0D
:1048A0001F3C00000000000000000000F07FF0014D
:1048B000F001F001F001F001F001F001F001F00170
:1048C000F001F001F001F001F001F001F001F00160
:1048D000F001F001F0010000000000000000000005
:1048E0000000000000000000000000009EF7FFFF35
:1048F000FFFFFFFFE7FBE7F9C7F1C7F1C7F1C7F11A
:10490000C7F1C7F1C7F1C7F1C7F10000000000000F
:104910000000000000000000000000000000000097
:10492000FC3DFE3F9E3F1F3F1F3E1F3C1F3C1F3C68
:104930001F3C1F3C1F3C1F3C1F3C1F3C1F3C0000FA
:104940000000000000000000000000000000000067
:1049500000000000F007FC1F3E3E1F3C1F7C0F784C
:104960000F780F780F780F781F7C1F3C3E3EFC1F9E
:10497000F007000000000000000000000000000040
:104980000000000000000000F83DFE3F3E3F1F3EDB
:104990000F3C0F3C0F3C0F3C0F3C0F3C1F3C1E3E9E
:1049A0003E3FFC3FF83F003C003C003C003C003CEC
:1049B000000000000000000000000000EE07FE1FE5
:1049C0007E3E1E3C1E7C1E781E781E781E781E7849
:1049D0001E7C3E7C7E3EFE1FDE0F1E001E001E0063
:1049E0001E001E000000000000000000000000008B
:1049F0007F1FFF1FE71FC71F871F001F001F001F0C
:104A0000001F001F001F001F001F001F001F0000CD
:104A10000000000000000000000000000000000096
:104A200000000000FC07FE1F0E1E003E003E003F7F
:104A3000E01FFC07FE003E001E001E003E3CFC3F47
:104A4000F01F000000000000000000000000000057
:104A50000000800780078007FF7FFF7F80078007B7
:104A6000800780078007800780078007800780070E
:104A7000C007FF03FF01000000000000000000006D
:104A80000000000000000000000000001E3C1E3C72
:104A90001E3C1E3C1E3C1E3C1E3C1E3C1E3C1E3C46
:104AA0003E3C7E3CFE3EFE1FDE0F0000000000008C
:104AB00000000000000000000000000000000000F6
:104AC00007F00F780F781E3C1E3C1E3E3C1E3C1E1D
:104AD000780F780FF00FF007F007E003E003000015
:104AE00000000000000000000000000000000000C6
:104AF0000000000003F0E3F1E3F3E7F3F7F3F7F36B
:104B0000F77F777F7F7F7F7F7F7F3E3E3E3E3E3ECB
:104B10003E3E000000000000000000000000000019
:104B200000000000000000000F7C1E3E3C3E3C1FC9
:104B3000F80FF007F007E003F007F807F80F7C1E06
:104B40003E3E1F3C1F7800000000000000000000F7
:104B500000000000000000000000000007F80F78CF
:104B60000F7C1E3C1E3C3C1E3C1E3C1F780FF80F69
:104B7000F007F007E003E003C003C003C0038007B1
:104B8000800F007F00000000000000000000000017
:104B9000FF3FFF3F1F003E007C00F800F001E003F4
:104BA000C007800F001F001E003CFF7FFF7F00003A
:104BB0000000000000000000FE01E003C003C0038D
:104BC000C003C003E001E001E001C001C003803F79
:104BD000803FC003C001E001E001E001C003C00369
:104BE000C003C003E003FE017E000000C001C0015D
:104BF000C001C001C001C001C001C001C001C001AD
:104C0000C001C001C001C001C001C001C001C0019C
:104C1000C001C001C001C001C001C001C00100004D
:104C2000C03FE003E001E001E001E001C001C0039A
:104C3000C003C001E001FE00FE00E001C001C003AE
:104C4000C003C001E001E001E001E001E003C03F7A
:104C5000003F000000000000000000000000000015
:104C600000000000000000000000073FC77FE7735E
:104C7000FFF17EF0000000000000000000000000D6
:104C80000000000000000000000000000000000024
:104C90000000000000000000002000200020002094
:104CA00000200000002000000050005000500000D4
:104CB00000000000000000000050005000F800500C
:104CC00000F80050005000000020007800A00070A4
:104CD000002800F00020000000C000C800100020E4
:104CE0000040009800180000004000A000A0004014
:104CF00000A8009000680000003000300020004054
:104D000000000000000000000010002000400040F3
:104D100000400020001000000040002000100010A3
:104D20000010002000400000002000A8007000F8E3
:104D3000007000A80020000000000020002000F803
:104D40000020002000000000000000000000000023
:104D5000003000300020000000000000000000F8DB
:104D60000000000000000000000000000000000043
:104D7000000000300030000000000008001000209B
:104D8000004000800000000000700088009800A82B
:104D900000C8008800700000002000600020002093
:104DA00000200020007000000070008800080070E3
:104DB0000080008000F8000000F8000800100030BB
:104DC00000080088007000000010003000500090C3
:104DD00000F800100010000000F8008000F000084B
:104DE000000800880070000000380040008000F0DB
:104DF000008800880070000000F80008000800101B
:104E000000200040008000000070008800880070D2
:104E1000008800880070000000700088008800781A
:104E20000008001000E0000000000000002000006A
:104E30000020000000000000000000000020000032
:104E4000002000200040000000080010002000406A
:104E500000200010000800000000000000F8000022
:104E600000F80000000000000040002000100008D2
:104E70000010002000400000007000880008003092
:104E800000200000002000000070008800A800B88A
:104E900000B00080007800000020005000880088EA
:104EA00000F800880088000000F00088008800F00A
:104EB0000088008800F000000070008800800080FA
:104EC000008000880070000000F0008800880088E2
:104ED0000088008800F0000000F80080008000F0EA
:104EE0000080008000F8000000F80080008000F0E2
:104EF0000080008000800000007800880080008032
:104F0000009800880078000000880088008800F879
:104F10000088008800880000007000200020002029
:104F20000020002000700000003800100010001069
:104F300000100090006000000088009000A000C0F9
:104F400000A00090008800000080008000800080A9
:104F50000080008000F80000008800D800A800A8A9
:104F600000A80088008800000088008800C800A809
:104F70000098008800880000007000880088008881
:104F8000008800880070000000F00088008800F0B1
:104F90000080008000800000007000880088008889
:104FA00000A800900068000000F00088008800F071
:104FB00000A0009000880000007000880080007051
:104FC000000800880070000000F800A80020002001
:104FD0000020002000200000008800880088008851
:104FE0000088008800700000008800880088008821
:104FF000008800500020000000880088008800A879
:1050000000A800A800500000008800880050002080
:1050100000500088008800000088008800500020B0
:10502000002000200020000000F8000800100070A0
:105030000040008000F80000007800400040004080
:105040000040004000780000000000800040002088
:1050500000100008000000000078000800080008A8
:1050600000080008007800000020005000880000C0
:105070000000000000000000000000000000000030
:105080000000000000F80000006000600020001038
:1050900000000000000000000000000000600010A0
:1050A00000700090007800000080008000B000C810
:1050B000008800C800B000000000000000700088F8
:1050C0000080008800700000000800080068009858
:1050D0000088009800680000000000000070008850
:1050E00000F8008000700000001000280020007010
:1050F0000020002000200000000000000070009848
:1051000000980068000800000080008000B000C81F
:105110000088008800880000002000000060002057
:10512000002000200070000000100000001000109F
:10513000001000900060000000800080009000A03F
:1051400000C000A0009000000060002000200020AF
:1051500000200020007000000000000000D000A827
:1051600000A800A800A800000000000000B000C8CF
:10517000008800880088000000000000007000889F
:1051800000880088007000000000000000B000C827
:1051900000C800B000800000000000000068009817
:1051A00000980068000800000000000000B000C87F
:1051B0000080008000800000000000000078008077
:1051C0000070000800F000000020002000F800201F
:1051D0000020002800100000000000000088008867
:1051E0000088009800680000000000000088008827
:1051F00000880050002000000000000000880088A7
:1052000000A800A800500000000000000088005026
:105210000020005000880000000000000088008886
:1052200000780008008800000000000000F800106E
:105230000020004000F80000001000200020004086
:1052400000200020001000000020002000200000AE
:10525000002000200020000000400020002000105E
:105260000020002000400000004000A800100000C6
:10527000000000000000000098520008000000201C
:105280005800000028010008F052000858000020D3
:10529000200F000044010008000000000000000092
:1052A0000000000000000000AC330000000000001F
:1052B00000000000000000000000000000FF0000EF
:1052C00000000000000000000000000000000000DE
:1052D00006080000884C0008070A00007424000833
:1052E0000B120000E02B0008101A00003C390008E7
:04000005080001915D
:00000001FF
